:020000040800F2
:1000000018BF0020D98D000879AB000885AB000827
:100010008BAB000891AB000897AB00080000000014
:100020000000000000000000000000009DAB000880
:10003000A9AB000800000000B5AB0008C1AB000888
:10004000358E0008358E0008358E0008358E000884
:10005000358E0008358E0008358E0008358E000874
:10006000358E0008358E0008358E0008358E000864
:10007000358E0008358E0008358E0008358E000854
:10008000358E0008358E0008358E0008358E000844
:10009000358E0008358E0008358E0008358E000834
:1000A000358E0008358E0008358E0008358E000824
:1000B00025AC00083DAC000859AC0008358E00089E
:1000C000358E0008358E0008358E0008358E000804
:1000D000358E0008358E0008358E0008358E0008F4
:1000E000358E0008358E0008358E0008358E0008E4
:1000F000358E0008358E0008358E0008358E0008D4
:10010000358E0008A5AC000875AC0008358E0008D7
:10011000358E0008358E0008358E0008358E0008B3
:10012000358E0008358E0008358E0008358E0008A3
:10013000358E0008358E0008358E0008358E000893
:10014000358E0008358E0008358E000891AC000809
:10015000358E0008358E0008358E0008358E000873
:10016000358E0008358E0008358E0008358E000863
:10017000358E0008358E0008358E0008358E000853
:10018000358E0008358E000880B582B000AF0121A1
:100190000C200AF003FC0C22082130480CF073FEFE
:1001A0000C2209212D480CF06EFE0C220A212B484E
:1001B0000CF069FE0C220B2128480CF064FE0C2286
:1001C0000C2126480CF05FFE0C22022124480CF082
:1001D0005AFE4FF470633B6002237B7102233B7134
:1001E0000023BB710123FB713B4619461B480CF0F1
:1001F0008DFD04233B603B46194619480CF086FDF3
:100200004FF480533B600023FB713B461946134873
:100210000CF07CFD08233B6000233B710223FB7143
:100220003B4619460E480CF071FD40233B6000230D
:100230003B710023FB713B46194609480CF066FDF3
:1002400001214FF400600AF021FC01214FF48000ED
:100250000AF0A4FB00BF0837BD4680BD000802407D
:10026000000C024080B592B000AF786039604FF06A
:10027000FA5123480DF056F8002121480DF01CF8E2
:100280001F480CF0F1FE4FF00063FB601D4B3B611B
:100290007B687B614023BB613B68FB6100233B6261
:1002A0004FF480637B624FF48053BB624FF4804312
:1002B000FB6200233B634FF440337B630423BB6347
:1002C0000323FB634FF400033B644FF400137B6490
:1002D00007F10C0319460A480CF098FF012210217F
:1002E00007480DF04DF8202105480DF000F80121D8
:1002F00003480CF0E1FF00BF4837BD4680BD00BF9A
:1003000058640240802C014080B592B000AF786004
:1003100039604FF0FA5123480DF004F800212148CC
:100320000CF0CAFF1F480CF09FFE4FF00063FB600B
:100330001D4B3B617B687B610023BB613B68FB61BC
:1003400000233B624FF480637B624FF48053BB62B7
:100350004FF48043FB6200233B634FF440337B63E5
:100360000423BB630323FB634FF400033B644FF49C
:1003700000137B6407F10C0319460A480CF046FF92
:100380000122102107480CF0FBFF202105480CF04A
:10039000AEFF012103480CF08FFF00BF4837BD4678
:1003A00080BD00BF58640240802C014080B485B0FD
:1003B00000AF78600023FB607B68DB684FF0FF32A2
:1003C0005A607B68DB686FF080425A61FB7B43F0C8
:1003D0008003FB737B7B43F008037B737B68DB68E4
:1003E000FA689A6100BF1437BD4680BC70470000B0
:1003F00080B586B000AF78600023FB7400237B617A
:100400000023FB6003200DF0A8F87B68DB681B6904
:10041000FB607B6901337B617B69184A934201D998
:10042000002326E0FB68C3F3C073DBB2002BE9D0E6
:1004300000237B61FB6843F00103FB607B68DB68A2
:10044000FA681A617B68DB681B69FB607B690133B2
:100450007B617B69094A934206D8FB68C3F30003BA
:10046000DBB2012BEED000E000BF03200DF075F8E9
:10047000FB7C18461837BD4680BD00BF400D030009
:1004800080B489B000AFF860B96011461A460B46D7
:10049000FB711346BB800023FB76FB68DB78002BE7
:1004A00022D100237B610023FB61BB880333002B37
:1004B00000DA03339B107B61FB79FA6832339B00CF
:1004C00013449B683B610023FB6109E0BB681A6829
:1004D0003B691A60FB690133FB61BB680433BB6095
:1004E000FA697B699A42F1D3FB7E18462437BD46F0
:1004F00080BC704780B489B000AFF860B960134623
:10050000FB800023FB61FB880333002B00DA0333FD
:100510009B10BB61FB68D3F8D0307B610023FB618B
:1005200009E07B691A68BB681A60FB690133FB61EB
:10053000BB680433BB60FA69BB699A42F1D3BB68FC
:1005400018462437BD4680BC7047000080B487B091
:1005500000AF78600B46FB7000233B610023FB7308
:100560007B680022DA707B6801229A707B684022E7
:100570009A80FB78012B13D14FF0A0433B617B683D
:100580000122DA727B6808221A707B6804225A7092
:100590007B684FF4A072DA807B6802221A7211E045
:1005A000FB78002B0ED1454B3B617B680022DA7251
:1005B0007B680C221A707B6806225A707B684FF4A5
:1005C000A062DA803A697B68DA603B6903F5006310
:1005D0001A467B681A6100237B611CE07B695A0123
:1005E0003B69134403F5106319467A687B69043349
:1005F0009B00134499607B695A013B69134403F5DE
:10060000306319467A687B6914339B001344596040
:100610007B6901337B617B685B781A467B69934217
:10062000DCD33B6903F580631A467B685A613B69FA
:1006300003F588631A467B68C3F8CC2000237B61EE
:100640000FE07B695A013B69134403F5A063194627
:100650007A687B6922339B00134499607B6901337C
:100660007B617B681B781A467B699342E9D3002340
:100670007B610FE07B691A033B69134403F58053E8
:1006800019467A687B6932339B00134499607B6911
:1006900001337B617B681B781A467B699342E9D3FF
:1006A0003B6903F560631A467B68C3F80C21FB7B4A
:1006B00018461C37BD4680BC704700BF0000044090
:1006C00080B586B000AF78600023FB7500233B61E6
:1006D0000023FB600023BB607B681B7A012B42D1A7
:1006E0007B68DB689B6BFB60BB7B6FF30003BB73BA
:1006F0007B685B7A002B03D0BB7B43F01003BB739A
:100700007B68DB68FA689A6300233B617B68DB687F
:10071000DB683B613B7C6FF386133B74BB7C6FF300
:100720008613BB74BB7C6FF34103BB74BB7C6FF35C
:10073000C303BB747B68DB683A69DA607868FFF7EB
:1007400057FE7B68DB78012B3DD13B7A052262F3B3
:1007500044033B723B7A43F020033B727B68DB68C7
:10076000BA689A602FE07B68DB68DB683B613B7CA2
:1007700043F040033B747B68DB683A69DA60786871
:10078000FFF736FE0023FB60BB7B43F00103BB7326
:10079000BB7B43F00403BB73BB7B43F00803BB7319
:1007A000BB7B43F02003BB737B685B7A002B03D0D9
:1007B000BB7B43F01003BB737B68DB68FA689A630A
:1007C00014200CF0E3FE7B68DB78012B10D17B68F2
:1007D000DB689B68BB603B7A052262F344033B7293
:1007E0003B7A43F020033B727B68DB68BA689A600F
:1007F000FB7D18461837BD4680BD80B485B000AF7C
:1008000078600023FB730023BB603B7A43F0010355
:100810003B727B68DB689968BA687B68DB680A436F
:100820009A60FB7B18461437BD4680BC704780B485
:1008300085B000AF78600023FB730023BB603B7A78
:1008400043F001033B727B68DB689968BB68DA435D
:100850007B68DB680A409A60FB7B18461437BD460C
:1008600080BC704780B586B000AF786039600023E7
:10087000FB7400237B610023FB60FB6843F02003D3
:10088000FB603B6803F01F03DAB2FB6862F38A1374
:10089000FB607B68DB68FA681A617B68DB681B6950
:1008A000FB607B6901337B617B69094A934206D80F
:1008B000FB68C3F34013DBB2012BEED000E000BFB6
:1008C00003200CF04AFEFB7C18461837BD4680BD5D
:1008D000400D030080B586B000AF78600023FB7444
:1008E00000237B610023FB60FB6843F01003FB6087
:1008F0007B68DB68FA681A617B68DB681B69FB60F0
:100900007B6901337B617B69094A934206D8FB68A6
:10091000C3F30013DBB2012BEED000E000BF0320D5
:100920000CF01BFEFB7C18461837BD4680BD00BF8F
:10093000400D030080B584B000AF78600B46FB70BB
:100940000023FB737B68DB68DB68BB60FB7A6FF3BB
:100950004513FB72FB7A6FF38613FB72FB78012B56
:1009600004D1FB7A43F02003FB7206E0FB78002BF6
:1009700003D1FB7A43F04003FB727B68DB68BA6803
:10098000DA6032200CF002FEFB7B18461037BD46C1
:1009900080BD80B483B000AF78607B68DB685B6942
:1009A00003F0010318460C37BD4680BC704780B584
:1009B00082B000AF78607868FFF7EBFF0346012B49
:1009C00014BF01230023DBB218460837BD4680BDA3
:1009D00080B485B000AF78600023FB607B68DB6883
:1009E0005B69FB607B68DB689B69FA681340FB60AE
:1009F000FB6818461437BD4680BC704780B485B08C
:100A000000AF78600B46FB707B681B691B68FB605E
:100A1000FB7803F00303DAB23B7B62F301033B7321
:100A20007B681B69FA681A6000BF1437BD4680BC3A
:100A3000704780B58CB000AF7860002387F82B300A
:100A400000237B6200233B620023FB610023BB6128
:100A500000237B617B68D3F80C3100221A607B682D
:100A60001B691B683B6297F821306FF3C40387F85A
:100A700021307B681B693A6A1A607B68DB7A012B3C
:100A800033D103217868FFF7B9FF7B68DB688022E8
:100A90005A624023FB838023BB837B68DB68FA694F
:100AA0009A62BA8BFB8B13449BB23B8380237B837C
:100AB0007B68DB68BA69C3F804213A8B7B8B1344EB
:100AC0009BB23B8300237B837B68DB68BA69C3F8F6
:100AD00008213A8B7B8B13449BB23B8300237B839F
:100AE0007B68DB68BA69C3F80C2110217868FFF7CE
:100AF000B9FE7868FFF7EEFE7B681B6900221A6179
:100B00007B681B6900225A617B681B694FF0FF32CA
:100B10009A617B681B690022DA610023FB623AE07C
:100B20007A68FB6A04339B0013449B681B687B62F2
:100B300097F8273023F07F03DBB2002B0ED0002381
:100B40007B6297F8273043F0400387F8273097F807
:100B5000273043F0080387F8273001E000237B6249
:100B60007A68FB6A04339B0013449B687A6A1A60B4
:100B70007A68FB6A04339B0013449B6800221A6165
:100B80007A68FB6A04339B0013449B68FF229A60D7
:100B9000FB6A0133FB627B685B781A46FB6A93420F
:100BA000BED30023FB6235E07A68FB6A14339B00F6
:100BB00013445B681B68FB60FB7B23F07F03DBB2A5
:100BC000002B0AD00023FB60FB7B43F04003FB7348
:100BD000FB7B43F00803FB7301E00023FB607A68B2
:100BE000FB6A14339B0013445B68FA681A607A68E6
:100BF000FB6A14339B0013445B6800221A617A6815
:100C0000FB6A14339B0013445B68FF229A60FB6A03
:100C10000133FB627B685B781A46FB6A9342C3D35D
:100C200000237B617B7D43F001037B757B681B693F
:100C30001A697B69DB4302EA03017A697B681B69F5
:100C40000A431A617B68DB78012B1BD100233B61CF
:100C50003B7C43F001033B743B7C43F002033B7459
:100C60003B8A402262F38A033B82BB7C43F0010350
:100C7000BB747B8A402262F349037B827B681B69D9
:100C80003A691A63786800F006F897F82B3018462E
:100C90003037BD4680BD80B584B000AF786000239A
:100CA000FB730023BB607B68DB6800229A617B6872
:100CB000DB686FF080425A617868FFF777FB7B68EA
:100CC000DB78002B03D13B7A43F010033B727B7A35
:100CD00043F008037B727B7A43F010037B727B7ACC
:100CE00043F020037B72BB7A43F00403BB72BB7AF0
:100CF00043F00803BB723B7A43F008033B72BB7AB4
:100D000043F01003BB72BB7A43F02003BB727B68D5
:100D1000DB689A69BB68DB4302EA0301BA687B6857
:100D2000DB680A439A61FB7B18461037BD4680BDDD
:100D300080B485B000AF78600023FB737B681B69CB
:100D40009B68BB603B7AC3F34103DBB2022B09D043
:100D5000032B04D0012B02D00323FB7305E00223F5
:100D6000FB7302E00123FB7300BFFB7B18461437C3
:100D7000BD4680BC704780B487B000AF7860002368
:100D8000FB750023BB607B681B699B683B617B68CC
:100D90009B691B68FB603B7CC3F34103DBB2022B06
:100DA00004D0BB896FF30A03BB8105E0BB89032232
:100DB00062F30A03BB8100BF7B689B69FA681A6013
:100DC0007B7A43F001037B727B681B695A68BB68BE
:100DD000DB4302EA0301BA687B681B690A435A6075
:100DE000FB7D18461C37BD4680BC704780B487B079
:100DF00000AF786039600023FB740023FB600023A0
:100E0000BB603B685B78012B0FD13B681B787A682D
:100E100004339B0013449B687B613B681B781A4634
:100E2000012393409BB23B810EE03B681B787A68BC
:100E300014339B0013445B687B613B681B781A4644
:100E4000012393409BB27B817B691B68FB607B7BAA
:100E500023F07F03DBB2002B25D13B689B68C3F3F3
:100E60000A039AB2BB8962F30A03BB813B68DB7851
:100E700003F00303DAB2BB7B62F38303BB733B680B
:100E8000DB8803F00F03DAB2FB8962F38913FB817D
:100E9000FB7B43F01003FB737B7B43F080037B738E
:100EA000FA687B691A607B681B69D969BA687B68D4
:100EB0001B690A43DA61FB7C18461C37BD4680BCBF
:100EC000704780B487B000AF786039600023FB744E
:100ED0000023FB600023BB603B685B78012B0FD1D4
:100EE0003B681B787A6804339B0013449B687B61E2
:100EF0003B681B781A46012393409BB23B810EE06E
:100F00003B681B787A6814339B0013445B687B61F1
:100F10003B681B781A46012393409BB27B817B7B05
:100F20006FF3C7137B73FA687B691A607B681B6970
:100F3000D969BB68DA437B681B690A40DA61FB7CCC
:100F400018461C37BD4680BC704780B588B000AFDE
:100F5000786039600023FB770023BB6100237B614D
:100F600000233B613B685B78012B40F0AA803B6823
:100F70001B787A6804339B0013449B681B687B6171
:100F80003B681B787A6804339B0013449B681B6999
:100F90003B613B685B69002B09D13B696FF312032E
:100FA0003B617B8A012262F3CC037B8221E03B68B8
:100FB0005B69C3F312023B6962F312033B613B6856
:100FC0005A693B689B6813445A1E3B689B68B2FB96
:100FD000F3F3C3F309039AB27B8A62F3CC037B82F7
:100FE0003B68DB78012B04D1FB7C012262F34613C2
:100FF000FB743B681B787A6804339B0013449B683E
:101000003A691A617B68DB78012B0AD13B681B784F
:101010007A6804339B0013449B683A6812695A61EA
:1010200015E03B68DB78012B11D03B685B69002B36
:101030000DD03B681B781A4601239340BB617B6847
:101040001B69596B7B681B69BA690A435A633B6821
:10105000DB78012B14D17B681B699B68FB60FB6804
:10106000C3F30D239BB203F00103002B04D1FB7DDE
:1010700043F02003FB7503E0FB7D43F01003FB7599
:10108000FB7D43F00403FB75FB7D43F08003FB75A0
:101090003B681B787A6804339B0013449B687A6929
:1010A0001A603B68DB78012B40F08B803B68D96885
:1010B0003B681A783B685B699BB27868FFF7E0F998
:1010C0007FE03B681B787A6814339B0013445B68AD
:1010D0001B687B613B681B787A6814339B00134460
:1010E0005B681B693B613B685B69002B0DD13B680A
:1010F0009B68C3F312023B6962F312033B617B8A74
:10110000012262F3CC037B8222E03B685A693B6890
:101110009B6813445A1E3B689B68B2FBF3F3C3F30E
:1011200009039AB27B8A62F3CC037B827B8AC3F386
:10113000C9039BB2C3F312033A689268C2F3120266
:1011400002FB03F2C2F312023B6962F312033B613A
:101150003B681B787A6814339B0013445B683A69D8
:101160001A617B68DB78012B09D13B681B787A68B0
:1011700014339B0013445B683A6812695A613B68F8
:10118000DB78012B0CD13B685B79002B04D0FB7D15
:1011900043F02003FB7503E0FB7D43F01003FB7578
:1011A000FB7D43F00403FB75FB7D43F08003FB757F
:1011B0003B681B787A6814339B0013445B687A6938
:1011C0001A60FB7F18462037BD4680BD80B489B0C9
:1011D00000AF786039600023FB770023BB610023F8
:1011E0003B610023BB603B685B78012B6ED17B6861
:1011F0009B697B617B691B683B617B691B69BB6089
:101200003B685B69002B09D13B7A6FF306033B72A5
:10121000BB7A012262F3C403BB7221E03B685A69C6
:101220003B689B689A420DD93B689A683B685A6153
:101230003B689B6803F07F03DAB23B7A62F30603F4
:101240003B7208E03B685B6903F07F03DAB23B7AEC
:1012500062F306033B72BB7A012262F3C403BB72E2
:10126000BA687B691A617B68DB78012B09D13B681E
:101270001B787A6804339B0013449B683A681269B0
:101280005A61FB7C43F00403FB74FB7C43F0800356
:10129000FB743A697B691A607B68DB78002B74D138
:1012A0003B685B69002B70D03B681B781A460123B2
:1012B00093401A46BB691343BB617B681B69596B3A
:1012C0007B681B69BA690A435A635EE03B681B7816
:1012D0007A6814339B0013445B681B683B613B686E
:1012E0001B787A6814339B0013445B681B69BB60EE
:1012F0003B685B69002B0ED13B689B6803F07F0362
:10130000DAB23B7A62F306033B72BB7A012262F3E4
:10131000C403BB7211E03B689A683B685A613B6842
:101320009B6803F07F03DAB23B7A62F306033B72F9
:10133000BB7A012262F3C403BB723B681B787A68F4
:1013400014339B0013445B68BA681A617B68DB78CE
:10135000012B09D13B681B787A6814339B00134436
:101360005B683A6812695A61FB7C43F00403FB74C2
:10137000FB7C43F08003FB743B681B787A68143372
:101380009B0013445B683A691A60FB7F1846243758
:10139000BD4680BC704780B487B000AF78603960CC
:1013A0000023FB750023FB603B685B78012B1CD19D
:1013B0003B681B787A6804339B0013449B683B614D
:1013C0003B691B68FB60FB7B23F07F03DBB2002BD8
:1013D00003D0FB7B43F04003FB73BB7B43F0200354
:1013E000BB73FA683B691A6011E03B681B787A6846
:1013F00014339B0013445B683B613B691B68FB60D3
:10140000BB7B43F02003BB73FA683B691A60FB7D2A
:1014100018461C37BD4680BC704780B487B000AF0B
:10142000786039600023FB740023FB603B685B78C5
:10143000012B08D13B681B787A6804339B00134466
:101440009B687B6107E03B681B787A6814339B00DC
:1014500013445B687B617B691B68FB60BB7B6FF33C
:101460004513BB733B68DB78032B03D03B68DB7809
:10147000022B03D1FB7B43F01003FB73FA687B69FB
:101480001A60FB7C18461C37BD4680BC704780B490
:1014900085B000AF78607B681B699B69FB607B68E7
:1014A0001B69DB69FA681340FB60FB681B0C18467C
:1014B0001437BD4680BC704780B485B000AF7860FB
:1014C0000B46FB70FB787A6814339B0013445B680F
:1014D0009B68FB607B681B695B69FA681340FB6073
:1014E000FB6818461437BD4680BC704780B485B091
:1014F00000AF78607B681B699B69FB607B681B6938
:10150000DB69FA681340FB60FB689BB2184614372E
:10151000BD4680BC704780B487B000AF78600023C0
:101520003B61FB7C43F0C003FB74BB7C012262F394
:10153000C403BB743B7C182262F306033B747B68D4
:101540005B6D3A691A617B68DB78012B16D1002349
:10155000FB607B6803F2CC527B685B6D5A617B68F1
:101560005B6D1B68FB60FB7B43F08003FB734FF0FC
:101570008023FB607B685B6DFA681A6000BF1C37D4
:10158000BD4680BC704780B500AF01214FF40060BC
:1015900009F09AFA00214FF4006009F095FA00BFB3
:1015A00080BD000080B485B000AF78600023FB6090
:1015B000124B5B68FB60FB6823F4FD4323F07F0361
:1015C000FB607B681B7D1A467B689B681A437B68BF
:1015D0005B681A437B68DB681A437B681B681A43A5
:1015E0007B681B691343FA681343FB60034AFB687B
:1015F000536000BF1437BD4680BC7047002C0140CB
:1016000080B483B000AF0346FB71044AFB791360DA
:1016100000BF0C37BD4680BC704700BFA08025428C
:1016200080B483B000AF7860034A7B68136000BF6A
:101630000C37BD4680BC7047002C014080B400AF21
:10164000034B1B6803F003031846BD4680BC70477C
:10165000002C014080B485B000AF78600023FB60AF
:10166000114A7B681B6893600F4BDB68FB60FB686B
:1016700023F4FF6323F00703FB607B685A687B68F1
:101680009B681A437B68DB681A437B681B691343BA
:10169000FA681343FB60044AFB68D36000BF143749
:1016A000BD4680BC704700BF002C014080B400AF35
:1016B000034B1B69DBB21846BD4680BC704700BFB8
:1016C000002C014080B485B000AF78600023FB603F
:1016D0007A68054B1344FB60FB681B681846143797
:1016E000BD4680BC704700BF142C014080B485B05B
:1016F00000AF78600023FB60124A7B681B6853626E
:10170000104A7B685B6893620E4BDB6AFB60FB6888
:1017100023F0F703FB607B689A687B68DB681A43F9
:101720007B681B691A437B685B691343FA68134340
:10173000FB60044AFB68D36200BF1437BD4680BC1F
:10174000704700BF002C014080B400AF034BD3F8BA
:1017500080301846BD4680BC704700BF002C014059
:1017600080B483B000AF0346FB71044AFB79136079
:1017700000BF0C37BD4680BC704700BF8C8525423A
:1017800080B483B000AF78600B46FB70FB78002B11
:1017900006D0094BDA6B08497B681343CB6306E03C
:1017A000054BDA6B7B68DB4303491340CB6300BF17
:1017B0000C37BD4680BC7047002C014080B485B01A
:1017C00000AF78600023FB73084B5A6B7B681340B3
:1017D000002B02D00123FB7301E00023FB73FB7B92
:1017E00018461437BD4680BC704700BF002C01402E
:1017F00080B483B000AF7860034A7B68936300BF16
:101800000C37BD4680BC7047002C014080B485B0C9
:1018100000AF78600023FB73084B5A6B7B68134062
:10182000002B02D00123FB7301E00023FB73FB7B41
:1018300018461437BD4680BC704700BF002C0140DD
:1018400080B483B000AF7860034A7B68936300BFC5
:101850000C37BD4680BC7047002C014080B400AFFF
:1018600000BFBD4680BC704780B483B000AF034664
:10187000FB7100BF0C37BD4680BC704780B400AF21
:10188000034B01221A7000BFBD4680BC704700BFE9
:101890006005002080B400AF034B00221A7000BF27
:1018A000BD4680BC704700BF6005002080B400AF1B
:1018B00000BFBD4680BC704780B400AF00BFBD46CE
:1018C00080BC704780B400AF00BFBD4680BC70478D
:1018D00080B483B000AF0346FB710C4B00221A604A
:1018E0000A4B1B680A4A1360094B1B68094A1360BC
:1018F000FB790033032B03D8074B02225A8300BF26
:1019000000BF0C37BD4680BC704700BF8C0700206D
:1019100088070020840700200010024080B588B0AE
:1019200000AF0023FB6129E09949FA6913465B0087
:1019300013449B000B44043300221A609449FA6953
:1019400013465B0013449B000B44083301221A70BA
:101950008F49FA6913465B0013449B000B440A331A
:1019600000221A708A49FA6913465B0013449B00EF
:101970000B4400221A60FB690133FB61FB69032BF6
:10198000D2DD844B00221A60824B1B68824A1360AE
:10199000814B1B68814A136000237B7601233B76D1
:1019A0000023BB7602237B6107F1140319467C48B0
:1019B0000BF0ACF901237B6107F114031946794858
:1019C0000BF0A4F902237B6107F114031946754853
:1019D0000BF09CF90020FFF77BFF04237B6107F1EC
:1019E000140319466F480BF091F908237B6107F146
:1019F000140319466B480BF089F90120FFF768FFC3
:101A000040237B6107F11403194666480BF07EF909
:101A100080237B6107F11403194662480BF076F9C5
:101A20000220FFF755FF20237B6107F114031946BD
:101A30005D480BF06BF901237B6107F11403194634
:101A40005A480BF063F90320FFF742FF40F2077397
:101A50003B816423FB6000233B8200237B810123C5
:101A6000FB7100237B714FF4E06014F0C9FC1C2370
:101A70003B710023BB713B1D184614F0D3FC0121C0
:101A8000012008F0E5FF07F1080319464FF08040F8
:101A900016F000F84FF0804300229A8201214FF0A7
:101AA000804016F06EF8012201214FF0804016F0C0
:101AB000A6F801214FF0804016F082F81D233B71FB
:101AC0000123BB713B1D184614F0ACFC0121022020
:101AD00008F0BEFF07F108031946354815F0DAFF94
:101AE000334B00229A820121314816F04AF8012234
:101AF00001212F4816F083F801212D4816F060F8D7
:101B00001E233B710223BB713B1D184614F08AFC57
:101B10000121042008F09CFF07F10803194625481D
:101B200015F0B8FF234B00229A820121214816F0BC
:101B300028F8012201211F4816F061F801211D48F3
:101B400016F03EF832233B710323BB713B1D184650
:101B500014F068FC0121082008F07AFF07F108035F
:101B60001946154815F096FF134B00229A82012161
:101B7000114816F006F8012201210F4816F03FF82F
:101B800001210D4816F01CF800BF2037BD4680BD6E
:101B9000289F00208C070020880700208407002051
:101BA0000010024000000240000802400004024011
:101BB0000004004000080040000C004080B584B0E4
:101BC00000AF0346FB71A64B1B6903F48053002B47
:101BD0000CBF01230023DBB2002B15D1A04B1B69E6
:101BE00003F40053002B0CBF01230023DBB2002BB6
:101BF0000AD19B4B1B6903F48043002B0CBF0123CC
:101C00000023DBB2002B01D0012300E00023DBB274
:101C1000002B02D000F008FAF0E1FA79914913465E
:101C20005B0013449B000B440A331B78DBB2002B90
:101C300000F0E580FB79032B5AD801A252F823F07B
:101C4000511C0008791C0008A11C0008C91C0008D0
:101C5000FA79844913465B0013449B000B44083314
:101C60001B78DBB2002B03D07F4B02221A833FE0AC
:101C70007D4B02225A833BE0FA797A4913465B0096
:101C800013449B000B4408331B78DBB2002B03D0BA
:101C9000754B08221A832BE0734B08225A8327E0E6
:101CA000FA79704913465B0013449B000B440833D8
:101CB0001B78DBB2002B03D06B4B80221A8317E01A
:101CC000694B80225A8313E0FA79664913465B0018
:101CD00013449B000B4408331B78DBB2002B03D06A
:101CE0005F4B01221A8302E05D4B01225A8300BF41
:101CF000FA795C4913465B0013449B000B4408339C
:101D00001B78DBB2002B4AD1FA79564913465B00A7
:101D100013449B000B4404331B68002B11D0FA7949
:101D2000504913465B0013449B000B4404331B686B
:101D3000591E4C4813465B0013449B000344043374
:101D40001960FA79474913465B0013449B000B4422
:101D500009331B78DBB2002B10D0FA7941491346C6
:101D60005B0013449B000B441B68591C3D48134601
:101D70005B0013449B000344196025E0FA7939495C
:101D800013465B0013449B000B441B68591E3548E7
:101D900013465B0013449B000344196014E0FA7976
:101DA000304913465B0013449B000B4404331B680B
:101DB000002B09D1FA792B4913465B0013449B0091
:101DC0000B440A3300221A70FA79264913465B0045
:101DD00013449B000B4408331B78DBB2002B0CBF71
:101DE00001230023DBB2FA7918461E4913465B0033
:101DF00013449B000B44083302461A70FEE01B4B51
:101E00001B68002B40F3FA80164B9B7ADBB2002B49
:101E100040F0F480134B9B7DDBB2002B40F0EE8052
:101E2000104B93F82230DBB2002B40F0E7800D4BD3
:101E300093F82E30DBB2002B40F0E08072B60C4BF2
:101E40001A6813461B0113449B000A4A1344BB60E3
:101E50004422B968084818F09FFC0023FB602CE07E
:101E600000040240289F0020000002408407002058
:101E7000880700206405002090070020BB68FA68EE
:101E800053F822105F48FA6813465B0013449B0026
:101E9000034404331960BA68FB681344403318786C
:101EA0005849FA6813465B0013449B000B440933FE
:101EB00002461A70FB680133FB60FB68032BDDDD13
:101EC000504B5B68002B1FD04E4B01229A72BB68AF
:101ED00093F84030002B14BF01230023DBB21A46D5
:101EE000012149480AF0B8FF484B02221A83BB6817
:101EF0001A694FF0804392B21A85BB681B6A194673
:101F00004FF0804015F030FE3E4B1B69002B1DD07A
:101F10003C4B01229A75BB6893F84130002B14BFEB
:101F200001230023DBB21A46042137480AF094FF4C
:101F3000364B02221A83BB685A69354B92B21A8516
:101F4000BB685B6A1946324815F00EFE2D4BDB6903
:101F5000002B1ED02B4B012283F82220BB6893F864
:101F60004230002B0CBF01230023DBB21A46402174
:101F700025480AF071FF254B02221A83BB689A6933
:101F8000244B92B21A85BB689B6A1946214815F00A
:101F9000EBFD1C4B9B6A002B1ED01A4B012283F8D1
:101FA0002E20BB6893F84330002B0CBF0123002385
:101FB000DBB21A46202118480AF04EFF134B0222CA
:101FC0001A83BB68DA69154B92B21A85BB68DB6A63
:101FD0001946124815F0C8FD114B1B680133104A11
:101FE00013600F4B1B68072B02DD0D4B00221A609C
:101FF0000C4B1B68013B0B4A136062B61037BD46A1
:1020000080BD00BF289F0020000002400010024059
:10201000000400400008004000080240000C00409E
:10202000880700208407002080B582B000AF00231D
:102030007B601BE07B68DBB21846FFF749FC144964
:102040007A6813465B0013449B000B440A3300225A
:102050001A700F497A6813465B0013449B000B44C7
:10206000043300221A607B6801337B607B68032B9A
:10207000E0DD084B00221A60064B1B68064A13601D
:10208000054B1B68054A136000BF0837BD4680BD7D
:10209000289F00208C07002088070020840700204C
:1020A00080B48BB000AFF860B9607A60FB681B68E1
:1020B000002B0BD1FB6804331B68002B06D1FB6897
:1020C00008331B68002B7BD000E000BF3F4B1B6830
:1020D000072BFADC3E4B1A6813461B0113449B0086
:1020E0003C4A13447B6100237B6252E07B6A9B0085
:1020F000BA6813441B683B623B6A374A934201D972
:10210000354B3B623B6A092B01D80A233B62012312
:10211000FB61324A3B6AB2FBF3F3BB6105E0FB694A
:102120005B00FB61BB695B08BB61BB691B0C1B04EB
:10213000002BF4D1FB69013BFB617B6A9B00BA6811
:10214000134419687B697A6A0C3243F822107B6960
:102150007A6A0832B96943F822107B697A6A0432D4
:10216000F96943F822107B6A7A68134419787A690E
:102170007B6A134440330A461A707B6A9B00FA68F4
:10218000134419687B697A6A43F822107B6A013329
:102190007B627B6A022BA9DD0D4B1B6801330C4A65
:1021A00013600B4B1B68072B02DD094B00221A60E2
:1021B00072B6064B1B680133044A136062B600E036
:1021C00000BF2C37BD4680BC704700BF840700208D
:1021D0008C07002064050020F049020000B10819B6
:1021E00080B400AF024B1B681846BD4680BC7047E8
:1021F0008407002080B483B000AF114B1B68002B14
:1022000001DD012317E000237B6010E00D497A68AF
:1022100013465B0013449B000B440A331B78DBB26C
:10222000002B01D0012306E07B6801337B607B68D3
:10223000032BEBDD002318460C37BD4680BC7047EE
:1022400084070020289F002080B400AF054B1B6846
:10225000072BCCBF01230023DBB21846BD4680BC50
:10226000704700BF8407002080B483B000AF0346EE
:10227000FB71FA79054913465B0013449B000B443C
:102280001B6818460C37BD4680BC7047289F00204D
:1022900080B483B000AF00237B600BE009497A680B
:1022A00013465B0013449B000B4400221A607B68BA
:1022B00001337B607B68032BF0DD00BF0C37BD462C
:1022C00080BC7047289F0020B0B584B002AF1C4B83
:1022D0003B6000237B602CE07B68DBB20733DBB222
:1022E0005BB21946012009F05FFE3B687A6853F83B
:1022F00022003A687B68134440331B781D463B68D4
:102300007A68043253F822403B687A68083253F8FE
:1023100022303A6879680C3152F8212001920093FA
:1023200023462A46014607480AF072F87B680133C3
:102330007B607B68032BCFDD00BF0837BD46B0BD97
:102340009007002040AE010880B483B000AF034680
:10235000FB71044AFB79136000BF0C37BD4680BC9B
:10236000704700BF20000E4280B483B000AF034628
:10237000FB71044AFB79136000BF0C37BD4680BC7B
:10238000704700BFA4000E4280B485B000AF7860F3
:102390000023FB73084B5A687B681340002B02D064
:1023A0000123FB7301E00023FB73FB7B184614370A
:1023B000BD4680BC704700BF0070004090B583B040
:1023C00000AF0023FB71FDF7DFFEFFF7DCF800F044
:1023D000A1F80346FB71FB79DBB2002B02D0FB793D
:1023E000DBB240E000F0ACF90346FB71FB79DBB2F5
:1023F000002B02D0FB79DBB235E01D4B00221A75B1
:102400001B4B00221A601A4B00225A60184B002204
:102410009A60174B0022DA60154B00221A611448AB
:10242000FFF7C0F8134800F051FA0346FB71FB793F
:10243000DBB2002B0BD10F4BB3F854301B044FF021
:1024400000041846214600F071FD0346FB71FB793C
:10245000DBB2002B05D14FF4006000F0FBFC03461B
:10246000FB71FB79DBB218460C37BD4690BD00BF4F
:10247000C89F0020709F002080B582B000AF042369
:10248000FB7100F011F80346FB71FB79042B01D1BD
:10249000002305E0FB79FF2B01D1022300E001239B
:1024A00018460837BD4680BD80B582B000AF002316
:1024B0007B6000F019F80346012B0FD13B1D184635
:1024C00000F0B4FF0346002B01D0FF2307E07B6838
:1024D0005B0ADBB203F00F03DBB200E0FF23184618
:1024E0000837BD4680BD000080B582B000AF012333
:1024F000FB71082106480AF096FC0346002B01D028
:102500000023FB71FB79DBB218460837BD4680BD5E
:10251000000C024080B586B000AF0023FB710023A1
:102520007B6100233B610023FB600023BB60814B88
:1025300076221A757F4B00221A607E4B00225A6069
:102540007C4B00229A607B4B0022DA60794B0022A0
:102550001A617848FFF726F80320FFF761F8012099
:10256000FFF74EF8744B00221A60734B00225A603A
:10257000714B00229A60704B0022DA606E4B4FF470
:1025800080621A616C48FFF765F800F0EFFF0346C0
:10259000FB71FB79DBB2002B02D0FB79DBB2C5E02B
:1025A000654B4FF4D5721A60634B08225A60624B38
:1025B00040229A60604B0022DA605F4B4FF48062E9
:1025C0001A615D48FFF746F800F0F6FF0346FB711D
:1025D000FB79DBB2002B06D1584B01221A604FF079
:1025E0008043BB6017E0544B00221A60524B3722E5
:1025F0005A60514B40229A604F4B0022DA604E4B9A
:102600004FF480621A614C48FFF724F8372001F03C
:102610000FF80346FB71484B00221A60464B3722E5
:102620005A60454B40229A60434B0022DA60424B8D
:102630004FF480621A614048FFF70CF8372000F031
:10264000F7FF0346FB71FB79DBB2002B6CD14FE047
:10265000394B00221A60384B37225A60364B4022E1
:102660009A60354B0022DA60334B4FF480621A6176
:102670003148FEF7EFFF372000F0DAFF0346FB7129
:10268000FB79DBB2002B02D0FB79DBB24EE0BB68FA
:1026900043F0004343F48013274A1360264B29225A
:1026A0005A60254B40229A60234B0022DA60224B6D
:1026B0004FF480621A612048FEF7CCFF01F08AF8DF
:1026C0000346FB71FB79DBB2002B02D0FB79DBB256
:1026D0002CE00020FEF7F6FF78617B69DB0F012B11
:1026E0000CBF01230023DBB2FB603B6901333B617C
:1026F000FB68002B04D13B694FF6FE729342A7D9C9
:102700003B694FF6FE72934204D91B23FB71FB79A0
:10271000DBB20BE07B6903F080437B617B69002BBC
:1027200002D0064B02221A60FB79DBB2184618373A
:10273000BD4680BDC89F0020589F0020DC070020B8
:1027400080B582B000AF0023FB710123BB80FEF790
:1027500075FF0346002B03D12523FB71FB79A7E00E
:10276000554B1B68042B33D0544B00221A60534B3B
:1027700002225A60514BC0229A60504B0022DA600C
:102780004E4B4FF480621A614C48FEF763FF01F034
:1027900049F80346FB71FB79002B01D0FB7987E0F8
:1027A0000020FEF78FFF0246454B1A600420FEF71B
:1027B00089FF0246424B5A600820FEF783FF02461B
:1027C0003F4B9A600C20FEF77DFF02463C4BDA60DF
:1027D000394B1B68002B0BD0374B1B68012B07D0E4
:1027E000354B1B68062B03D0334B1B68022B1ED1C5
:1027F000324B00221A60314B03225A602F4B402289
:102800009A602E4B0022DA602C4B4FF480621A61E2
:102810002A48FEF71FFF3B1D1946032001F036F83A
:102820000346FB71FB79002B01D0FB7940E0224B82
:102830001B68042B39D0BB881A46224B1A60BB8810
:102840001B041A461D4B1A601C4B09225A601B4B75
:10285000C0229A60194B0022DA60184B4FF4806254
:102860001A611648FEF7F6FE00F0DCFF0346FB7126
:10287000FB79002B01D0FB791AE00020FEF722FF44
:102880000246114B1A600420FEF71CFF02460E4B55
:102890005A600820FEF716FF02460B4B9A600C2088
:1028A000FEF710FF0246084BDA600023FB71FB794C
:1028B00018460837BD4680BDDC070020589F002021
:1028C000F007002000080020E0070020B0B485B029
:1028D00000AF78600023BB730023FB73884B1B6839
:1028E000DAB27B6883F85620864B1B689AB27B6805
:1028F000A3F85420844B1B681B0EFB73FB7B9B09C6
:10290000DAB27B681A70FB7B9B10DBB203F00F031B
:10291000DAB27B685A70FB7B03F00303DAB27B68A0
:102920009A70794B1B681B0CFB737B68FA7BDA701F
:10293000754B1B681B0AFB737B68FA7B1A71724B21
:102940001B68FB737B68FA7B5A716F4B5B681B0ECD
:10295000FB73FB7B9BB21B019AB27B68DA806A4BEC
:102960005B681B0CFB737B68DB889AB2FB7B1B09E3
:10297000DBB29BB213439AB27B68DA80FB7B03F035
:102980000F03DAB27B681A725F4B5B681B0AFB733A
:10299000FB7BDB09DAB27B685A72FB7B9B11DBB2F3
:1029A00003F00103DAB27B689A72FB7B5B11DBB246
:1029B00003F00103DAB27B68DA72FB7B1B11DBB236
:1029C00003F00103DAB27B681A737B6800225A7342
:1029D0004B4B1B68002B04D0494B1B68012B40F06C
:1029E0009580FB7B9B0203F440627B681A61464B37
:1029F0005B68FB737B681B69FA7B92001A437B68F8
:102A00001A61414B9B681B0EFB737B681B69FA7B49
:102A10009209D2B21A437B681A61FB7BDB10DBB2EE
:102A200003F00703DAB27B681A75FB7B03F0070338
:102A3000DAB27B685A75344B9B681B0CFB73FB7BCB
:102A40005B09DAB27B689A75FB7B9B10DBB203F003
:102A50000703DAB27B68DA75FB7B5B00DBB203F05D
:102A60000603DAB27B681A76274B9B681B0AFB7356
:102A70007B681B7EDAB2FB7BDB09DBB21343DAB285
:102A80007B681A767B681B6901334FF000047A6813
:102A9000C2E912347B681B7EDBB20233012202FAE8
:102AA00003F37A68D2E912124FEAE37403FB02F5EA
:102AB00001FB04F02844A1FB0334021914467A6890
:102AC000C2E912347B681B7ADBB21A4601239340B9
:102AD0001A467B681A657B68D3E912127B681B6D06
:102AE0004FF0000403FB02F501FB04F02844A1FBB6
:102AF0000334021914467A68C2E9123442E000BF76
:102B0000DC07002000080020E0070020A64B1B681F
:102B1000022B37D1A54B5B68FB73FB7B1B0403F4D3
:102B20007C127B681A61A14B9B681B0EFB737B6850
:102B30001B69FA7B12021A437B681A619B4B9B68E4
:102B40001B0CFB737B681A69FB7B1A437B681A6159
:102B5000964B9B681B0AFB737B681B694FF0000454
:102B6000591C44F100024FF000034FF00004D4045C
:102B700044EA5134CB047A68C2E912347B684FF4DA
:102B800000721A65FB7B9B11DBB203F00103DAB222
:102B90007B685A76FB7B5B00DBB203F07E03DAB224
:102BA0007B689A76814B9B68FB737B689B7EDAB26D
:102BB000FB7BDB09DBB21343DAB27B689A76FB7BE3
:102BC00003F07F03DAB27B68DA76784BDB681B0EA2
:102BD000FB73FB7BDB09DAB27B681A77FB7B5B114B
:102BE000DBB203F00303DAB27B685A77FB7B9B10FE
:102BF000DBB203F00703DAB27B689A77FB7B9B00BA
:102C0000DBB203F00C03DAB27B68DA77674BDB6880
:102C10001B0CFB737B68DB7FDAB2FB7B9B09DBB2AF
:102C20001343DAB27B68DA77FB7B5B11DBB203F02C
:102C30000103DAB27B6883F820207B68002283F8E6
:102C40002120FB7B03F00103DAB27B6883F82220AA
:102C5000564BDB681B0AFB73FB7BDB09DAB27B6834
:102C600083F82320FB7B9B11DBB203F00103DAB274
:102C70007B6883F82420FB7B5B11DBB203F001034C
:102C8000DAB27B6883F82520FB7B1B11DBB203F0F3
:102C90000103DAB27B6883F82620FB7B9B10DBB252
:102CA00003F00303DAB27B6883F82720FB7B03F091
:102CB0000303DAB27B6883F828203C4BDB68FB73A4
:102CC000FB7B5B08DAB27B6883F829207B680122F2
:102CD00083F82A20364B1B681B0EFB737B68FA7B3C
:102CE00083F82C20324B1B681B0CFB73FB7B9BB2C5
:102CF0001B029AB27B68DA852D4B1B681B0AFB739B
:102D00007B68DB8D9AB2FB7B9BB213439AB27B68E4
:102D1000DA85274B1B68FB73FB7B1B061A467B6817
:102D20001A63234B5B681B0EFB737B681B6BFA7B80
:102D300012041A437B681A631D4B5B681B0CFB7300
:102D40007B681B6BFA7B12021A437B681A63184B71
:102D50005B681B0AFB737B681A6BFB7B1A437B68FF
:102D60001A63134B5B68FB737B68FA7B83F8342030
:102D70000F4B9B681B0EFB737B68FA7B83F8352037
:102D80000B4B9B681B0CFB73FB7B1B061A467B687B
:102D90009A63074B9B681B0AFB737B689B6BFA7BF0
:102DA00012041A437B6805E0DC070020E0070020DE
:102DB000F00700209A63264B9B68FB737B689B6B34
:102DC000FA7B12021A437B689A63214BDB681B0E65
:102DD000FB737B689A6BFB7B1A437B689A631C4B83
:102DE000DB681B0CFB737B6893F83C30DAB2FB7B2F
:102DF0001B09DBB21343DAB27B6883F83C20FB7B10
:102E00001B029BB203F470639AB27B68DA87104BA3
:102E1000DB681B0AFB737B68DB8F9AB2FB7B9BB280
:102E200013439AB27B68DA87094BDB68FB73FB7B41
:102E30005B08DAB27B6883F840207B68012283F864
:102E40004120BB7B18461437BD46B0BC704700BF5D
:102E5000F007002080B584B000AF78600023FB73DA
:102E6000304B1B68032B03D12723FB73FB7B54E000
:102E70002C4B1B68002B07D02A4B1B68012B03D05F
:102E8000284B1B68022B47D17B68B3F5805F03D1C9
:102E90002723FB73FB7B40E07B68B3F5006F1ED1FB
:102EA000012000F05BFD0346FB73FB7B002B33D15D
:102EB0001D4B00221A751C4B00221A601A4B00226F
:102EC0005A60194B00229A60174B4FF40062DA6087
:102ED000154B00221A611448FEF764FB1CE0002029
:102EE00000F03CFD0346FB73FB7B002B14D10E4B23
:102EF00000221A750C4B00221A600B4B00225A60FC
:102F0000094B00229A60084B0022DA60064B00222F
:102F10001A610548FEF746FBFB7B18461037BD4695
:102F200080BD00BFDC070020C89F002080B584B0B2
:102F300000AFC7E900010023FB733B680D4A136033
:102F40000C4B07225A600B4B40229A60094B00221F
:102F5000DA60084B4FF480621A610648FEF77AFB8C
:102F6000072000F065FB0346FB73FB7B1846103718
:102F7000BD4680BD589F002090B587B000AFF86077
:102F8000C7E900230023FB75434B00221A70434B13
:102F900000221A60424B01221A60424B0022DA6280
:102FA000012140F22A30FEF7EBFB3B8DFA6A02FB6F
:102FB00003F31946F868FDF7A7F90120FEF7D0FBE7
:102FC000394B1B68022B0ED14FF400733B85D7E9B8
:102FD00000124FF000034FF000044B0A43EAC253C3
:102FE000540AC7E900343B8D304A13602F4B10223E
:102FF0005A602E4B40229A602C4B0022DA602B4BF9
:103000004FF480621A612948FEF724FB102000F07B
:103010000FFB0346FB75FB7D002B01D0FB7D36E0EB
:10302000234B4FF0FF321A603B8DFA6A02FB03F329
:103030001F4A53601E4B90229A601D4B0222DA6099
:103040001B4B00221A611A4B01225A611848FEF7E5
:103050004DFB3B68154A1360144B12225A60134B08
:1030600040229A60114B0022DA60104B4FF48062CC
:103070001A610E48FEF7EEFA122000F0D9FA034664
:10308000FB75FB7D002B01D0FB7D00E0FB7D18462E
:103090001C37BD4690BD00BF180800201C0800204A
:1030A00014080020002C0140DC070020589F00205D
:1030B000E09F002080B582B000AF0023FB714FF08D
:1030C000FF333B6002E03B68013B3B60234B1B68E6
:1030D000002B0BD1224B1B68002B07D1214B1B78F7
:1030E000DBB2002B02D13B68002BECD11B4B002242
:1030F0001A604FF0FF333B6002E03B68013B3B60EE
:10310000194B5B6B03F40053002B02D03B68002B80
:10311000F3D1164B1B68012B06D100F063F903466F
:10312000FB71124B00221A603B68002B04D1FB7923
:10313000002B01D10423FB7140F2FF50FEF758FB36
:10314000084B1B78DBB2002B03D0064B1B78DBB29D
:1031500000E0FB7918460837BD4680BD20080020F6
:103160001C08002018080020002C01401408002032
:1031700090B587B000AFF860C7E900230023FB7566
:10318000614B00221A70614B00221A60604B0122D1
:103190001A60604B0022DA62012140F22A30FEF709
:1031A000EFFA3B8DFA6A02FB03F31946F868FDF764
:1031B00059F80120FEF7D4FA574B1B68022B0ED1A9
:1031C0004FF400733B85D7E900124FF000034FF036
:1031D00000044B0A43EAC253540AC7E900343B8D4A
:1031E0004E4A13604D4B10225A604C4B40229A605D
:1031F0004A4B0022DA60494B4FF480621A6147481B
:10320000FEF728FA102000F013FA0346FB75FB7D49
:10321000002B01D0FB7D72E0414B1B681B043F4A31
:1032200013603E4B37225A603C4B40229A603B4B26
:103230000022DA60394B4FF480621A613748FEF79A
:1032400009FA372000F0F4F90346FB75FB7D002BEB
:1032500001D0FB7D53E0314AFB6A13602F4B1722EC
:103260005A602E4B40229A602C4B0022DA602B4B86
:103270004FF480621A612948FEF7ECF9172000F03C
:10328000D7F90346FB75FB7D002B01D0FB7D36E0B3
:103290003B68224A1360214B19225A601F4B40227F
:1032A0009A601E4B0022DA601C4B4FF480621A6158
:1032B0001A48FEF7CFF9192000F0BAF90346FB755A
:1032C000FB7D002B01D0FB7D19E0164B4FF0FF3248
:1032D0001A603B8DFA6A02FB03F3124A5360114BEA
:1032E00090229A600F4B0022DA600E4B00221A6186
:1032F0000C4B01225A610B48FEF7F8F9FB7D18468A
:103300001C37BD4690BD00BF180800201C080020D7
:1033100014080020002C0140DC070020589F0020EA
:1033200000080020E09F002080B582B000AF00239D
:10333000FB714FF0FF333B6002E03B68013B3B60B9
:10334000234B1B68002B0BD1224B1B68002B07D192
:10335000214B1B78DBB2002B02D13B68002BECD158
:103360001B4B00221A604FF0FF333B6002E03B68CA
:10337000013B3B60194B5B6B03F48053002B02D085
:103380003B68002BF3D1164B1B68012B06D100F0D4
:1033900029F80346FB71124B00221A603B68002B90
:1033A00004D1FB79002B01D10423FB7140F2FF50C3
:1033B000FEF71EFA084B1B78DBB2002B03D0064B3E
:1033C0001B78DBB200E0FB7918460837BD4680BDAC
:1033D000200800201C08002018080020002C0140B4
:1033E0001408002080B582B000AF0023FB710E4BA3
:1033F00000221A600C4B0C225A600B4B40229A6040
:10340000094B0022DA60084B4FF480621A610648CB
:10341000FEF720F90C2000F00BF90346FB71FB7955
:1034200018460837BD4680BD589F002080B584B03F
:1034300000AF78600023FB737B68002B03D1262349
:10344000FB73FB7B25E0154B1B681B04144A1360C0
:10345000134B0D225A60124B40229A60104B0022EF
:10346000DA600F4B4FF480621A610D48FEF7F2F8F4
:103470000D2000F0DDF80346FB73FB7B002B01D031
:10348000FB7B06E00020FEF71DF902467B681A6010
:10349000FB7B18461037BD4680BD00BF00080020EA
:1034A000589F002080B500AF4FF48070FEF7AEF952
:1034B0000346002B0AD02B4B00221A704FF4807069
:1034C000FEF7BEF9284B01221A6041E00220FEF708
:1034D0009DF90346002B06D00220FEF7B1F9214BDF
:1034E00002221A7034E00820FEF790F90346002B00
:1034F00006D00820FEF7A4F91A4B04221A7027E020
:103500002020FEF783F90346002B06D02020FEF78B
:1035100097F9144B06221A701AE01020FEF776F97C
:103520000346002B06D01020FEF78AF90D4B05222A
:103530001A700DE04FF40070FEF768F90346002B97
:1035400006D04FF40070FEF77BF9064B07221A7085
:1035500000214CF23A30FEF713F9024B1B78DBB234
:10356000184680BD180800201C08002080B582B0D5
:1035700000AF0023FB704FF480337B6002E07B6878
:10358000013B7B607B68002B05D08020FEF716F99D
:103590000346002BF3D07B68002B03D10323FB7081
:1035A000FB7804E040F2FF50FEF722F9FB78184662
:1035B0000837BD4680BD000080B584B000AF002351
:1035C000FB714FF48033BB60184B5B6BFB6005E015
:1035D000BB68013BBB60154B5B6BFB60FB6803F09A
:1035E0004503002B02D1BB68002BF1D1BB68002B37
:1035F00004D0FB6803F00403002B06D00323FB7107
:103600000420FEF7F5F8FB790CE0FB6803F04003BB
:10361000002B06D00023FB714020FEF7E9F8FB7970
:1036200000E0FB7918461037BD4680BD002C0140F4
:1036300080B586B000AF0346FB710023FB74634B7B
:103640005B6B7B6102E0614B5B6B7B617B6903F0D1
:103650004503002BF7D07B6903F00403002B06D051
:103660000323FB740420FEF7C3F8FB7CA9E07B690D
:1036700003F00103002B06D00123FB740120FEF7A9
:10368000B7F8FB7C9DE0FEF711F803461A46FB797C
:10369000934203D01023FB74FB7C92E040F2FF5076
:1036A000FEF7A6F80020FEF70DF8F860FA68484B20
:1036B0001340002B01D1FB7C83E0FB68002B01DA77
:1036C0001C237EE0FB6803F08043002B01D009231C
:1036D00077E0FB6803F00053002B01D00A2370E071
:1036E000FB6803F08053002B01D00B2369E0FB68DB
:1036F00003F00063002B01D00C2362E0FB6803F0B1
:103700008063002B01D00D235BE0FB6803F0807326
:10371000002B01D00E2354E0FB6803F40003002BC0
:1037200001D00F234DE0FB6803F48003002B01D090
:10373000102346E0FB6803F40013002B01D0112393
:103740003FE0FB6803F48013002B01D0122338E024
:10375000FB6803F40023002B01D0132331E0FB6846
:1037600003F48023002B01D014232AE0FB6803F428
:103770000033002B01D0152323E0FB6803F48033D2
:10378000002B01D016231CE0FB6803F40043002B40
:1037900001D0172315E0FB6803F48043002B01D010
:1037A00018230EE0FB6803F40053002B01D019230B
:1037B00007E0FB6803F00803002B01D01A2300E0A8
:1037C000FB7C18461837BD4680BD00BF002C014069
:1037D00008E0FFFD80B582B000AF0023FB70104B06
:1037E0005B6B7B6002E00E4B5B6B7B607B6803F086
:1037F0004503002BF7D07B6803F00403002B06D0B1
:103800000323FB700420FDF7F3FFFB7804E040F294
:10381000FF50FDF7EDFFFB7818460837BD4680BD29
:10382000002C014080B582B000AF0023FB70164B26
:103830005B6B7B6002E0144B5B6B7B607B6803F02F
:103840004503002BF7D07B6803F00403002B06D060
:103850000323FB700420FDF7CBFFFB7810E07B68AF
:1038600003F00103002B06D00123FB700120FDF7BC
:10387000BFFFFB7804E040F2FF50FDF7B9FFFB7893
:1038800018460837BD4680BD002C014080B586B083
:1038900000AF03463960FB710023FB742E4B5B6B5A
:1038A0007B6102E02C4B5B6B7B617B6903F0450322
:1038B000002BF7D07B6903F00403002B06D0032311
:1038C000FB740420FDF794FFFB7C40E07B6903F070
:1038D0000103002B06D00123FB740120FDF788FFB4
:1038E000FB7C34E0FDF7E2FE03461A46FB79934287
:1038F00003D01023FB74FB7C29E040F2FF50FDF75E
:1039000077FF0020FDF7DEFEF860FB6803F46043FC
:10391000002B06D1FB681B0C9AB23B681A80FB7C1B
:1039200015E0FB6803F40053002B01D013230EE0D5
:10393000FB6803F48043002B01D0102307E0FB68F1
:1039400003F40043002B01D00F2300E0FB7C18465A
:103950001837BD4680BD00BF002C014080B586B041
:1039600000AF0346FB710023FB750023FB600023BF
:103970003B610020FDF7A6FE034603F00073002B19
:1039800003D00E23FB75FB7D9FE0524B1B689BB25F
:1039900007F10C021146184600F0A0F80346FB752B
:1039A000FB7D002B01D0FB7D8FE0FB79012B46D105
:1039B0003B6903F48023002B3DD0464B1B681B045E
:1039C000454A1360444B37225A60434B40229A6069
:1039D000414B0022DA60404B4FF480621A613E484E
:1039E000FDF738FE3720FFF723FE0346FB75FB7D0E
:1039F000002B01D0FB7D68E0374B02221A60364B6A
:103A000006225A60344B40229A60334B0022DA601F
:103A1000314B4FF480621A612F48FDF71BFE0620E0
:103A2000FFF706FE0346FB75FB7D002B01D0FB7DF7
:103A30004BE0FB7D49E02523FB75FB7D45E03B69C1
:103A400003F48033002B3DD0224B1B681B04224A19
:103A50001360214B37225A601F4B40229A601E4B45
:103A60000022DA601C4B4FF480621A611A48FDF79D
:103A7000F1FD3720FFF7DCFD0346FB75FB7D002BD6
:103A800001D0FB7D21E0144B00221A60124B06226C
:103A90005A60114B40229A600F4B0022DA600E4BA5
:103AA0004FF480621A610C48FDF7D4FD0620FFF741
:103AB000BFFD0346FB75FB7D002B01D0FB7D04E0C1
:103AC000FB7D02E02523FB75FB7D18461837BD46BC
:103AD00080BD00BF00080020589F002090B587B02F
:103AE00000AF03463960FB8000237B610023FB7439
:103AF0000023BB600023FB60754B08221A60744BE7
:103B000010225A60724B40229A60714B0022DA6098
:103B10006F4B4FF480621A616D48FDF79BFD1020DA
:103B2000FFF786FD0346FB74FB7C002B01D0FB7C7A
:103B3000CAE0684B1B681B04654A1360644B37225C
:103B40005A60634B40229A60614B0022DA60604BFE
:103B50004FF480621A615E48FDF77CFD3720FFF765
:103B600067FD0346FB74FB7C002B01D0FB7CABE0C4
:103B7000594B4FF0FF321A60574B08225A60564B90
:103B800030229A60544B0222DA60534B00221A61B1
:103B9000514B01225A615048FDF7A8FD4C4B0022C1
:103BA0001A604B4B33225A60494B40229A60484B73
:103BB0000022DA60464B4FF480621A614448FDF7F8
:103BC00049FD3320FFF734FD0346FB74FB7C002BDB
:103BD00014D0FB7C78E04FF40010FDF7EFFD0346B6
:103BE000002B0BD07B699B0007F10802D418FDF76E
:103BF000ABFD034623607B6901337B61374B5A6B16
:103C000040F22A631340002BE5D00820FDF7D6FDD3
:103C10000346002B06D00820FDF7EAFD0423FB74C1
:103C2000FB7C51E00220FDF7C9FD0346002B06D0C6
:103C30000220FDF7DDFD0223FB74FB7C44E0202025
:103C4000FDF7BCFD0346002B06D02020FDF7D0FD7C
:103C50000623FB74FB7C37E04FF40070FDF7AEFDEC
:103C60000346002B07D04FF40070FDF7C1FD07237A
:103C7000FB74FB7C28E040F2FF50FDF7B9FDBB6808
:103C80001A06BB681B0203F47F031A43BB681B0AB6
:103C900003F47F4342EA0301BB681A0E3B68043316
:103CA0000A431A60FB681A06FB681B0203F47F03D1
:103CB0001A43FB681B0A03F47F431A43FB681B0E7D
:103CC0001A433B681A60FB7C18461C37BD4690BD02
:103CD000589F002000080020E09F0020002C014099
:103CE00080B500AF01214FF0805006F0B1FE0120F9
:103CF000FEF72AFB022013F015FC02464AF2A553F8
:103D00009A4263D001214FF0805006F0A1FE0120BD
:103D1000FEF71AFB012006F03BFD00BF412006F034
:103D2000F1FE0346002BF9D04FF4807006F0F8FD49
:103D3000314BFF221A60314B7F221A60012006F0BE
:103D40001DFE13F0E1F90120FEF7FEFA4AF2A5513B
:103D5000022013F0CDFB2A4B14221A70284B0E229E
:103D60005A70274B00229A70264B0A225A70254B14
:103D700018229A70234B0D22DA70224B04221A70FB
:103D80001E4B1B68204A53601B4B1B681E4A9360E6
:103D90001D4B00221A601C4813F034F9184900200A
:103DA00013F0ECF91749002013F0C4FA01214FF485
:103DB000802006F0F3FD0120FEF7D6FA00BF0820B0
:103DC000FEF7E2FA0346002BF9D012E001214FF092
:103DD000805006F03DFE0120FEF7B6FA13F094F98C
:103DE0004FF4804013F0B4FB01214FF4802006F023
:103DF000D5FD00BF80BD00BF28080020240800209A
:103E000008A00020F89F0020FC9F002080B584B00F
:103E100000AF0023BB604D49002013F039FA4C4934
:103E2000002013F017FB4A4BDB78FB80FB8840F245
:103E30006D1202FB03F3BB60454BDB78002B21D0F6
:103E4000FB880333002B00DA03339B101A46BB6850
:103E50001344BB60FB88013B3E4A82FB03125211B4
:103E6000DB17D31A1A46BB689B1ABB60FB88013B61
:103E7000384A82FB0312D211DB17D31A1A46BB68E9
:103E80001344BB60324B5B789BB2013BBB80002389
:103E9000FB7309E0FB7B304AD35C1A46BB681344D2
:103EA000BB60FB7B0133FB73FB7B9BB2BA889A42FE
:103EB000F0D8FB88274AA2FB0312D2094FF4C8713D
:103EC00001FB02F29B1A9BB2002B18D0FB8803F077
:103ED00003039BB2002B0BD1FB881E4AA2FB0312EB
:103EE0005209642101FB02F29B1A9BB2002B06D1FE
:103EF000174B5B78012B02D9BB68013BBB60144BAD
:103F00009B781A46BB681344BB60BB68134A02FB2C
:103F100003F20E4B1B7819464FF4616303FB01F368
:103F20001A440A4B5B7819460B461B015B1A9B002F
:103F30001344064A92781344A3F5A833A3F5C0733B
:103F4000BB60BB6818461037BD4680BD08A0002086
:103F5000F89F00201F85EB5154AE010880510100ED
:103F600090B583B000AFC7E90001104BD3E9000161
:103F7000D7E9002315F042FF03460C4618462146B8
:103F80004FF000020A4B15F083FD03460C4618461D
:103F9000214616F0E3F903461BB29BB208339BB2ED
:103FA0001BB218460C37BD4690BD00BF3808002034
:103FB0000000E03F90B585B000AFC7E90001134BAA
:103FC000D3E90001D7E9002315F018FF03460C469A
:103FD000184621464FF000020D4B15F059FD0346DF
:103FE0000C461846214616F0B9F90346FB81B7F98D
:103FF0000E30EF2B05DCFB89C3F1EF039BB21BB244
:1040000000E0002318461437BD4690BD3808002054
:104010000000E03F0000000090B585B000AF52A462
:10402000D4E90034C7E9023451A4D4E90034C7E923
:104030000034D7E90023D7E9020116F06FF90346EF
:10404000002B02D0D7E9003401E0D7E902344C4A12
:10405000C2E90034002012F079F84FF40272002116
:10406000484816F033FC474B0022C3F8A820454BC4
:10407000012283F82020434B0122C3F8AC203EA14B
:10408000D1E90001FFF76CFF03461A463E4B1A8048
:104090004FF000003D49FFF78DFF03461A463C4BA9
:1040A0001A80384B0022C3F8F821364BD3F8F83188
:1040B000344AC2F8F431334BD3F8F431314AC2F800
:1040C000F031304BD3F8F0312E4AC2F8EC312D4BA1
:1040D0000022C3F804222B4BD3F80432294AC2F839
:1040E0000032284BD3F80032264AC2F8FC31294A64
:1040F0004FF000034FF00004C2E90034254BD3E930
:104100000034254AC2E90034234BD3E90034234A62
:10411000C2E90034214BD3E90034214AC2E900341A
:104120001F4BD3E900341F4AC2E900341D4BD3E9C9
:1041300000341D4AC2E9003403F0B6F9FDF7EEFB86
:104140001A4B00221A60194B1B68194A1360194B4D
:1041500000221A70FFF75AFE0246174B1A6000BF82
:104160001437BD4690BD00BF898888888888E03FA5
:104170000AD7A3703D0AE33F0000000000C0624080
:10418000380800208808002040080020000059401E
:1041900042080020800800207808002070080020D5
:1041A0006808002060080020580800204C08002003
:1041B000480800205408002050080020000000009B
:1041C0002DE9F04FADF5257D0AAF07F10C0318601E
:1041D00007F108031960FFF71FFF07F10C0307F150
:1041E0001400012219680CF009FD034687F85332C8
:1041F00097F85332002B0CD008F062FA97F853224C
:104200007B4B1B7807F10C0109687A4808F000F92C
:10421000BBE3794A07F108031B681360764B1B6800
:1042200003F00203002B48D04FF000004FF00001D4
:10423000FFF796FE03469CB24FF000006F49FFF770
:10424000B9FE03469DB24FF000006D49FFF788FEAE
:1042500003469EB24FF000004FF00001FFF7AAFEA8
:1042600003469AB2002301934FF478430093134618
:1042700032462946204607F0D8FD624BB3F900309C
:1042800098B2604BB3F900309AB24FF4FC630093DC
:10429000D2231E2107F05AFC5B4BB3F9003099B2D0
:1042A000594BB3F900309AB24FF4FC6300931346B4
:1042B0004FF48772322007F049FC4F4B1B6803F024
:1042C0000403002B0AD000211F2007F09DFE0E21C1
:1042D000002007F069FE4D4807F08CFF0123C7F866
:1042E0006032012387F85F32494BC7F85832D7F85C
:1042F000583200221A70D7F858320133C7F84C32BE
:10430000444B1A46D7F84C32D31A962B27DD07F1C7
:1043100014031A469621D7F84C020DF0A5FA03466D
:10432000002B03D1002387F85F3219E0D7F84C0245
:1043300005F03FF9D7F84C0216F0E2FC0346DBB279
:104340000133DAB2D7F858321A70D7F858321B78DE
:104350000133D7F858221344C7F85832C7E700BFD3
:104360002B4BC7F85832D7E1D7F858320133C7F88A
:104370004C32214B1B6803F00403002B00F08680B5
:10438000254BD3F8E8310133234AC2F8E831224BF8
:10439000D3F8E831012B03DD1F4B0022C3F8E821DD
:1043A0001D4BD3F8E8319C2202FB03F3B0331A4AC9
:1043B0001344C7F84832D7F84832D7F84C12184699
:1043C00016F03CFCD7F84832D7F86022C3F89820A2
:1043D00000214FF4FC6007F017FE0023C7F85432A9
:1043E0000D4BD3F8E8310133C7F864324AE000BF1F
:1043F000D407002060AE0108440800200000794086
:1044000000C08240400800204208002084AE01081D
:10441000900A00201049002088080020D7F8643254
:10442000012B02DD0023C7F86432D7F864329C22E6
:1044300002FB03F3B033A44A1344C7F84832D7F859
:1044400054325BB21946012007F0AEFDD7F848326E
:10445000D3F89830002B09D0D7F84832D3F89830E9
:10446000D7F848221946994807F0D2FF07F0D6FE40
:10447000D7F854320133C7F85432D7F864320133D5
:10448000C7F86432D7F85432012BC7DDD7F84C0295
:1044900003F002FC034687F8473297F84732002BB7
:1044A00000F02C8100214FF4784007F0ADFD0A2187
:1044B000012007F079FD97F84732013B642B00F2A9
:1044C000F58001A252F823F05D4600086546000819
:1044D0006D460008754600087D46000885460008C0
:1044E0008D460008954600089D460008AD46000828
:1044F000AD460008AD460008AD460008AD460008D0
:10450000AD460008AD460008AD460008AD460008BF
:10451000AD460008AD460008AD460008AD460008AF
:10452000AD460008AD460008AD460008AD4600089F
:10453000AD460008AD460008AD460008AD4600088F
:10454000AD460008AD460008AD460008AD4600087F
:10455000AD460008AD460008AD460008AD4600086F
:10456000AD460008AD460008AD460008AD4600085F
:10457000AD460008AD460008AD460008AD4600084F
:10458000AD460008AD460008AD460008AD4600083F
:10459000AD460008AD460008AD460008AD4600082F
:1045A000AD460008AD460008AD460008AD4600081F
:1045B000AD460008AD460008AD460008AD4600080F
:1045C000AD460008AD460008AD460008AD460008FF
:1045D000AD460008AD460008AD460008AD460008EF
:1045E000AD460008AD460008AD460008AD460008DF
:1045F000AD460008AD460008AD460008AD460008CF
:10460000AD460008AD460008AD460008AD460008BE
:10461000AD460008AD460008AD460008AD460008AE
:10462000AD460008AD460008AD460008AD4600089E
:10463000AD460008AD460008AD460008AD4600088E
:10464000AD460008AD460008AD460008AD4600087E
:10465000AD460008AD460008A54600081C4807F016
:10466000C9FD23E01B4807F0C5FD1FE01A4807F00D
:10467000C1FD1BE0194807F0BDFD17E0184807F021
:10468000B9FD13E0174807F0B5FD0FE0164807F035
:10469000B1FD0BE0154807F0ADFD07E0144807F049
:1046A000A9FD03E0134807F0A5FD00BFD7F84C2291
:1046B000D7F86012104807F0ABFE07F11403184654
:1046C0000CF027FF61E100BF88080020B0AE0108B0
:1046D000B8AE0108CCAE0108E4AE0108FCAE01089A
:1046E00014AF010828AF010848AF010864AF010802
:1046F00080AF01089CAF0108B0AF0108D7F8603265
:104700000133C7F86032D7F858321B780133D7F835
:1047100058221344C7F85832A14B1B78002B05D1FF
:10472000D7F858321B78002B7FF41EAE9C4B1B78B9
:10473000002B04D197F85F32002B7FF4D5AD07F141
:10474000140318460CF0E5FE964B1B6803F00403B7
:10475000002B40F0D68090A1D1E90001FFF700FCCA
:104760000346A7F844324FF000008F49FFF722FCC0
:104770000346A7F842328D4B1B688D4AA2FB0323E8
:104780009B09C7F83C328B4B1B68894AA2FB032369
:104790009B09C7F83832B7F84432083B98B2B7F8EB
:1047A0004212B7F8443208339AB2B7F842424FF493
:1047B00078430093234607F0C9F9B7F84402B7F8E5
:1047C0004232083B99B2B7F84422B7F84232083374
:1047D0009CB24FF478430093234607F0B7F90021C9
:1047E0004FF4FC6007F010FC0021012007F0DCFB17
:1047F000D7F83C32704A82FB03121A44D212DB17FC
:10480000A2EB030CD7F83C326C4A82FB03121A4429
:104810005211DB17D21A694B83FB0213134459114F
:10482000D317CC1A23461B011B1B9B00D41AD7F8A5
:104830003C22624B83FB021313445911D317CD1A48
:104840002B461B015B1B9B00D51AD7F838325A4AFE
:1048500082FB03121A44D212DB17D61AD7F8383269
:10486000564A82FB03121A445211DB17D21A534BD9
:1048700083FB021313445911D317C91A0B461B01AA
:104880005B1A9B00D11AD7F838224C4B83FB0203EA
:1048900013445811D317C01A03461B011B1A9B005F
:1048A000D01AD7F8603203930290019100962B46FC
:1048B00022466146424807F0ABFD424BD3E9003443
:1048C000C7E90034404BD3E90034404AD2E9001232
:1048D0003F48D0E900563F48D0E900893E48D0E93A
:1048E00000ABCDE908ABCDE90689CDE90456CDE9A9
:1048F0000212CDE90034D7E90023384807F088FDDB
:1049000043E04FF000034FF00004CDE906344FF0D0
:1049100000034FF00004CDE904344FF000034FF0E2
:104920000004CDE902344FF000034FF00004CDE95C
:1049300000344FF000024FF000034FF000004FF042
:10494000000102F009FB4FF000034FF00004CDE935
:1049500006344FF000034FF00004CDE904344FF06B
:1049600000034FF00004CDE902344FF000034FF094
:104970000004CDE900344FF000024FF000034FF087
:1049800000004FF0000102F0E7FA07F51B77BD4683
:10499000BDE8F08FAFF300800000000000C062406F
:1049A0005408002044080020000059404808002016
:1049B000D34D62104C080020C5B3A2918988888825
:1049C000C8AF0108580800206008002068080020CF
:1049D000700800207808002080080020F8AF010847
:1049E00080B483B000AF0346FB71FB790B2B06D874
:1049F000FB799BB29B019BB2DB439BB247E0FB7907
:104A0000132B0AD8FB799BB20C3B9BB21B039AB2C7
:104A10006FF4FC639B1A9BB239E0FB791F2B09D81A
:104A2000FB799BB2143B9BB29B019BB203F27F4389
:104A30009BB22CE0FB79272B0AD8FB799BB2203B59
:104A40009BB29B009BB2C3F5FF6307339BB21EE092
:104A5000FB792F2B0AD8FB799BB2283B9BB25B03D7
:104A60009BB203F5FB5310339BB210E0FB793F2B55
:104A70000BD8FB799BB2303B9BB29B019BB2C3F13D
:104A8000FF2303F57F039BB201E048F2F0031846D1
:104A90000C37BD4680BC704780B483B000AF7860EF
:104AA000084B1A687B681344064A1360064B1A6861
:104AB0007B681344044A136000BF0C37BD4680BCBA
:104AC000704700BF480800204C08002090B587B010
:104AD00000AFFDF785FB0346012B7FDD00214FF67C
:104AE000E07007F091FA00237B6131E07B69DBB273
:104AF0001846FDF7B9FBF860F86815F015F9A14AFA
:104B00007B69DB001344D3E900341A46234615F0D1
:104B10009FFA03460C46C7E900347B69DBB21A46AC
:104B2000920013445B00DBB20133DBB25BB20321C2
:104B3000184607F039FA944A7B6913441B781946E2
:104B4000D7E90023914807F063FC7B6901337B615F
:104B50007B69022BCADD8E4B1B78002B01D0FDF741
:104B6000B3FBFFF753F902468A4B1B689A4235D0D4
:104B7000FFF74CF90246874B1A60864B1A68864B42
:104B80001B68D31A3B610C211E2007F00DFA00218F
:104B900047F6FF7007F038FA3B69804AA2FB03230F
:104BA000DC0A3B697E4AA2FB032359097C4BA3FB29
:104BB00001235A0913461B019B1A9B00CA1A386924
:104BC000774BA3FB001359090B461B015B1A9B0093
:104BD000C11A0B462146734807F01AFC07F0B0FFD4
:104BE0000346103B332B00F2898001A252F823F0D8
:104BF000C94C0008FD4C0008FD4C0008E54C0008BD
:104C0000FD4C0008FD4C0008FD4C0008FD4C000860
:104C1000FD4C0008FD4C0008FD4C0008FD4C000850
:104C2000FD4C0008FD4C0008FD4C0008FD4C000840
:104C3000FD4C0008FD4C0008FD4C0008FD4C000830
:104C4000FD4C0008FD4C0008FD4C0008FD4C000820
:104C5000FD4C0008FD4C0008FD4C0008FD4C000810
:104C6000FD4C0008FD4C0008FD4C0008FD4C000800
:104C7000FD4C0008FD4C0008D14C0008FD4C00081C
:104C8000FD4C0008FD4C0008FD4C0008FD4C0008E0
:104C9000FD4C0008FD4C0008FD4C0008FD4C0008D0
:104CA000FD4C0008FD4C0008FD4C0008FD4C0008C0
:104CB000C14C0008FD4C0008F54C0008ED4C000804
:104CC000FDF7B2F9002359E0374B01221A7015E0C5
:104CD000364B00221A700621012007F065F907F013
:104CE0009DFA0BE0314B01221A7007E0284B01229C
:104CF0001A7003E0264B00221A7000BFFDF7A4FAD9
:104D00000346002B7FF4E5AE294B1B6903F4805367
:104D1000002B0CBF01230023DBB2002B15D1244B49
:104D20001B6903F40053002B0CBF01230023DBB2EB
:104D3000002B0AD11E4B1B6903F48043002B0CBFD0
:104D400001230023DBB2002B01D0012300E000236C
:104D5000DBB2002B11D0FDF767F900214FF478404A
:104D600007F052F90B21072007F01EF9114807F050
:104D700041FA07F053FA002300E0012318461C37DC
:104D8000BD4690BD78B0010898B0010810B0010888
:104D9000104900201449002050080020C5B3A291FA
:104DA0008988888818B0010830080020FA9C002003
:104DB0000004024028B001082DE9F04190B002AF94
:104DC000F860B9607A6000237B630023FB620023F4
:104DD0003B6312E03B6B9B00FA6813441B687A6BE1
:104DE0009A4207D23B6B9B00FA6813441B687B63B3
:104DF0003B6BFB623B6B01333B633B6B022BE9D9A3
:104E0000FB6A9B00BA6813441B680A2B34D9002341
:104E10003B632EE03A6BFB6A9A4227D07B6B1946C4
:104E20004FF000023B6B9B00B86803441B684FF0D7
:104E3000000403FB02F501FB04F00544A1FB0301A0
:104E40006B181946FB6A9B00BA6813441B684FF045
:104E500000041A46234615F019FB03460C46194672
:104E60003B6B9B00FA6813444A1C1A603B6B01338E
:104E70003B633B6B032BCDD9B34B1B6803F004039F
:104E8000002B40F0FC800023BB621FE0BB6A9B004C
:104E9000FA6813441B68002B15D0BB6A9B00BA68E4
:104EA00013441B6842F2107202FB03F2BB6A9B00C0
:104EB000F9680B441B68B2FBF3F2A44B1B68134464
:104EC000A24A136005E0BB6A0133BB62BB6A032BD5
:104ED000DCDD9D4B1B6803F00203002B00F0CD804E
:104EE0007B681B78002B0BD0994BD3F8FC311A460A
:104EF000BB681B6813441A46954BC3F8FC210AE0B3
:104F0000934BD3F8FC311A46BB681B68D31A1A4678
:104F10008F4BC3F8FC217B6801331B78002B0CD02E
:104F20008B4BD3F800321A46BB6804331B6813441A
:104F30001A46874BC3F800220BE0854BD3F80032AA
:104F40001A46BB6804331B68D31A1A46804BC3F851
:104F500000227B6802331B78002B0CD07C4BD3F8EB
:104F600004321A46BB6808331B6813441A46784B50
:104F7000C3F804220BE0764BD3F804321A46BB6820
:104F800008331B68D31A1A46714BC3F80422704BBE
:104F9000D3F8FC31184614F0C7FE4FF000026D4BF9
:104FA00015F056F803460C46C7E90834684BD3F8A9
:104FB0000032184614F0B8FE4FF00002654B15F0B1
:104FC00047F803460C46C7E906345DA3D3E900233E
:104FD000D7E9080114F05CFD03460C46184621464B
:104FE000FEF7BEFF0346FB824FF000025A4BD7E9A3
:104FF000060114F04DFD03460C4618462146FEF707
:10500000D9FF0346BB82554BB3F90030B7F91620E0
:105010009A4206D1524BB3F90030B7F914209A42A4
:1050200025D04E4BB3F900309CB24D4BB3F9003054
:105030009DB2FE8AB7F81480454BD3F8042213467C
:105040009B001344474A82FB0312D211DB17D31A89
:10505000DBB203F01F03DBB21846FFF7C1FC0346C7
:105060000093434632462946204606F06FFD3B4AF0
:10507000FB8A13803A4ABB8A138001235AE0FFF768
:1050800025FD0346002B01D1002353E0364B1B784E
:10509000002B49D04FF6FF71002006F0B5FF0D211F
:1050A000002006F081FF314807F0A4F807F0B6F8B9
:1050B0000E21002006F078FF2D4807F09BF807F03E
:1050C000ADF800BFFDF796F80346002BFAD1FCF7C8
:1050D000ABFF0FE007F034FD0346202B07D0402B39
:1050E00000D007E0204B00221A70002322E01E4B64
:1050F00000221A701C4B1B78002BEBD100214FF6BD
:10510000FF7006F081FF0D21002006F04DFF07F033
:1051100085F800211F2006F077FF0E21002006F001
:1051200043FF144807F066F87A68F968B868FCF736
:10513000B7FF012318463837BD46BDE8F08100BFF0
:105140000000000000C06240440800204C0800201D
:1051500088080020000074400000594040080020EA
:1051600042080020676666663008002038B00108F3
:1051700050B0010884AE01082DE9F043E9B000AF5A
:1051800007F10C04206007F108000160391D0A6076
:105190003A46136007F10C031B68002BB8BF5B4253
:1051A000C7F8A83007F108031B68002BB8BF5B42A3
:1051B000C7F8AC303B1D1B68002BB8BF5B42C7F87B
:1051C000B0303B461B68002BB8BF5B42C7F8B43019
:1051D00007F10C031B68002BCCBF01230023DBB2BB
:1051E0001A4607F194031A7007F108031B68002B95
:1051F000CCBF01230023DBB21A4607F194035A7097
:105200003B1D1B68002BCCBF01230023DBB21A46D9
:1052100007F194039A703B461B68002BCCBF012317
:105220000023DBB21A4607F19403DA702AE3D7F8B9
:10523000B03042F2107202FB03F2D7F8C031B2FB79
:10524000F3F207F198039A6007F198039A68D84B34
:10525000DB6A9A4247D9D7F8B0301D464FF00006B6
:105260002B4634464FF000014FF00002A20042EA04
:10527000937299000B4614465B1944EB06044FF0F9
:1052800000014FF00002E20042EA5372D9000B46DF
:1052900014465B1B64EB06044FF000014FF0000264
:1052A000220142EA137219010B4614465B1944EBC2
:1052B00006044FF000014FF00002220142EA13728F
:1052C00019010B46144618462146B94BDB6A4FF0CC
:1052D00000041A46234615F0D9F803460C4601335C
:1052E000C7F8C031CEE20223C7F8503107F1980366
:1052F000C7F84C3107F1A803C7F84831D7F8503147
:105300009B00D7F84C2113441A68A949D7F85031AB
:1053100002339B000B445B689A425BD9A44AD7F8DE
:105320005031063352F82330C7F84431D7F84431AE
:10533000C7F840310023C7F83C31D7F850319B0003
:10534000D7F8482113441B689A4AA2FB03235B0841
:105350005B00C7F83831D7F84031322202FB03F343
:10536000954AA2FB03235B0BD7F83C211344C7F8F3
:105370003C318F4AD7F85031063352F823301A4661
:10538000D7F840311344C7F84031D7F83821D7F85F
:105390003C319A42DFD8D7F850319B00D7F84C21E6
:1053A00013441B68D7F840219A4213D2D7F85031E2
:1053B0009B00D7F8482113441B6842F2107202FB8D
:1053C00003F2D7F84011D7F84431CB1AB2FBF3F30C
:1053D000013301E04FF0FF33C7F89C31D7F89C311F
:1053E000002B04DDD7F89C31C7F8C0314AE2D7F86A
:1053F000AC3042F2107202FB03F2D7F8C031B2FBBC
:10540000F3F207F198035A6007F198035A68684B62
:105410009B6A9A4247D9D7F8AC301D464FF0000638
:105420002B4634464FF000014FF00002A20042EA42
:10543000937299000B4614465B1944EB06044FF037
:1054400000014FF00002E20042EA5372D9000B461D
:1054500014465B1B64EB06044FF000014FF00002A2
:10546000220142EA137219010B4614465B1944EB00
:1054700006044FF000014FF00002220142EA1372CD
:1054800019010B46144618462146494B9B6A4FF0BA
:1054900000041A46234614F0F9FF03460C46013374
:1054A000C7F8C031EEE10123C7F8343107F19803A2
:1054B000C7F8303107F1A803C7F82C31D7F83431D9
:1054C0009B00D7F8302113441A683949D7F8343192
:1054D00002339B000B445B689A425BD9344AD7F88D
:1054E0003431063352F82330C7F82831D7F8283141
:1054F000C7F824310023C7F82031D7F834319B0096
:10550000D7F82C2113441B682A4AA2FB03235B080B
:105510005B00C7F81C31D7F82431322202FB03F3B9
:10552000254AA2FB03235B0BD7F820211344C7F8BD
:1055300020311F4AD7F83431063352F823301A4647
:10554000D7F824311344C7F82431D7F81C21D7F8F1
:1055500020319A42DFD8D7F834319B00D7F8302178
:1055600013441B68D7F824219A4213D2D7F8343158
:105570009B00D7F82C2113441B6842F2107202FBE7
:1055800003F2D7F82411D7F82831CB1AB2FBF3F382
:10559000013301E04FF0FF33C7F89C31D7F89C315D
:1055A000002B0BDDD7F89C31C7F8C0316AE100BF92
:1055B0000CA00020ABAAAAAA5917B7D1D7F8A830D7
:1055C0001D464FF000062B4634464FF000014FF0C9
:1055D0000002A20042EA937299000B4614465B193E
:1055E00044EB06044FF000014FF00002E20042EAF3
:1055F0005372D9000B4614465B1B64EB06044FF054
:1056000000014FF00002220142EA137219010B4619
:1056100014465B1944EB06044FF000014FF0000202
:10562000220142EA137219010B461446184621461C
:10563000D7F8C0314FEAE3741A46234614F026FF28
:1056400003460C461A4607F198031A6007F19803BF
:105650001A68DB4B5B6A9A4247D9D7F8A8301D46D7
:105660004FF000062B4634464FF000014FF0000289
:10567000A20042EA937299000B4614465B1944EB70
:1056800006044FF000014FF00002E20042EA5372BC
:10569000D9000B4614465B1B64EB06044FF0000177
:1056A0004FF00002220142EA137219010B46144620
:1056B0005B1944EB06044FF000014FF00002220199
:1056C00042EA137219010B46144618462146BC4B98
:1056D0005B6A4FF000041A46234614F0D7FE0346D7
:1056E0000C460133C7F8C031CCE00023C7F81831AD
:1056F00007F19803C7F8143107F1A803C7F8103170
:10570000D7F818319B00D7F8142113441A68AC4914
:10571000D7F8183102339B000B445B689A425BD97F
:10572000A74AD7F81831063352F82330C7F80C319E
:10573000D7F80C31C7F808310023C7F80431D7F87F
:1057400018319B00D7F8102113441B689D4AA2FB17
:1057500003235B085B00C7F80031D7F80831322219
:1057600002FB03F3984AA2FB03235B0BD7F8042147
:105770001344C7F80431924AD7F81831063352F867
:1057800023301A46D7F808311344C7F80831D7F840
:105790000021D7F804319A42DFD8D7F818319B009E
:1057A000D7F8142113441B68D7F808219A4213D262
:1057B000D7F818319B00D7F8102113441B6842F228
:1057C000107202FB03F2D7F80811D7F80C31CB1A8C
:1057D000B2FBF3F3013301E04FF0FF33C7F89C3124
:1057E000D7F89C31002B04DDD7F89C31C7F8C031C5
:1057F00048E0D7F8B4301D464FF000062B4634463B
:105800004FF000014FF00002A20042EA93729900AB
:105810000B4614465B1944EB06044FF000014FF0B1
:105820000002E20042EA5372D9000B4614465B1BA9
:1058300064EB06044FF000014FF00002220142EA3F
:10584000137219010B4614465B1944EB06044FF022
:1058500000014FF00002220142EA137219010B46C7
:10586000144618462146D7F8C0314FEAE3741A4669
:10587000234614F00BFE03460C461A4607F1980324
:10588000DA6004E0D7F8C031002B3FF7D0AC4F4BC3
:10589000D3F8A83001334D4AC2F8A8304B4BD3F8A7
:1058A000A830022B03DD494B0022C3F8A820474B48
:1058B000D3F8A830C7F89C31D7F89C211346DB00F9
:1058C0009B1ADB00414A1344C7F87431D7F89C3166
:1058D000013BC7F89C31D7F89C31002B02DA022338
:1058E000C7F89C31D7F89C211346DB009B1ADB00DC
:1058F000364A1344C7F87031D7F89C31013BC7F8DA
:105900009C31D7F89C31002B02DA0223C7F89C3176
:10591000D7F89C211346DB009B1ADB002B4A13446B
:10592000C7F86C31D7F8C031002B21D10023C7F85C
:10593000983113E0D7F87431D7F898210432002158
:1059400043F82210D7F87431D7F89821002143F892
:105950002210D7F898310133C7F89831D7F8983129
:10596000032BE7DDD7F87431012283F820201DE1F5
:10597000D7F870315B6BD7F8D0219A4240F0CE80D7
:105980000023C7F89C31D7F89C31C7F8983138E02C
:10599000D7F87031D7F8982153F82230002B17D15F
:1059A000D7F898319B0007F5D072134453F8F83CB0
:1059B000002B0DD1D7F89C310133C7F89C311BE087
:1059C0000CA00020ABAAAAAA5917B7D188080020BA
:1059D000D7F87021D7F89831134421331A7807F19A
:1059E0009401D7F898310B441B789A4204D0D7F829
:1059F0009C310A33C7F89C31D7F898310133C7F886
:105A00009831D7F89831022BC2DDD7F89C31022BA0
:105A100040F084800023C7F89C31D7F89C31C7F848
:105A2000983119E0D7F87031D7F8982153F822202F
:105A3000D7F898319B0007F5D0710B4453F8F83C28
:105A4000D118D7F87031D7F8982143F82210D7F839
:105A500098310133C7F89831D7F89831032BE1DD3D
:105A6000D7F870311A6907F198031B689A420FD36F
:105A7000D7F870315A6907F198035B689A4207D3E7
:105A8000D7F870319A6907F198039B689A421DD242
:105A90000023C7F89C31D7F89C31C7F8983111E042
:105AA00007F19803D7F8982153F82210D7F87031EE
:105AB000D7F89821043243F82210D7F898310133EF
:105AC000C7F89831D7F89831032BE9DDD7F8703152
:105AD000D3E90A0107F5E473D3E9002313F0D8FFF3
